{
  "_format": "hh-sol-artifact-1",
  "contractName": "WavePortal",
  "sourceName": "contracts/WavePortal.sol",
  "abi": [
    {
      "inputs": [],
      "stateMutability": "payable",
      "type": "constructor"
    },
    {
      "anonymous": false,
      "inputs": [
        {
          "indexed": true,
          "internalType": "address",
          "name": "from",
          "type": "address"
        },
        {
          "indexed": false,
          "internalType": "string",
          "name": "message",
          "type": "string"
        },
        {
          "indexed": false,
          "internalType": "bool",
          "name": "wonPrize",
          "type": "bool"
        },
        {
          "indexed": false,
          "internalType": "uint256",
          "name": "timestamp",
          "type": "uint256"
        }
      ],
      "name": "NewWave",
      "type": "event"
    },
    {
      "inputs": [],
      "name": "getAllWaves",
      "outputs": [
        {
          "components": [
            {
              "internalType": "address",
              "name": "waver",
              "type": "address"
            },
            {
              "internalType": "string",
              "name": "message",
              "type": "string"
            },
            {
              "internalType": "bool",
              "name": "wonPrize",
              "type": "bool"
            },
            {
              "internalType": "uint256",
              "name": "timestamp",
              "type": "uint256"
            }
          ],
          "internalType": "struct WavePortal.Wave[]",
          "name": "",
          "type": "tuple[]"
        }
      ],
      "stateMutability": "view",
      "type": "function"
    },
    {
      "inputs": [
        {
          "internalType": "address",
          "name": "",
          "type": "address"
        }
      ],
      "name": "lastWavedAt",
      "outputs": [
        {
          "internalType": "uint256",
          "name": "",
          "type": "uint256"
        }
      ],
      "stateMutability": "view",
      "type": "function"
    },
    {
      "inputs": [
        {
          "internalType": "string",
          "name": "_message",
          "type": "string"
        }
      ],
      "name": "wave",
      "outputs": [],
      "stateMutability": "nonpayable",
      "type": "function"
    }
  ],
  "bytecode": "0x6080604052610e99806100136000396000f3fe608060405234801561001057600080fd5b50600436106100415760003560e01c8063449d46c014610046578063a42a466314610062578063bd43a90814610092575b600080fd5b610060600480360381019061005b91906106ee565b6100b0565b005b61007c600480360381019061007791906106c5565b610421565b6040516100899190610a39565b60405180910390f35b61009a610439565b6040516100a79190610979565b60405180910390f35b42600f600360003373ffffffffffffffffffffffffffffffffffffffff1673ffffffffffffffffffffffffffffffffffffffff168152602001908152602001600020546100fd9190610b1b565b1061013d576040517f08c379a000000000000000000000000000000000000000000000000000000000815260040161013490610a19565b60405180910390fd5b42600360003373ffffffffffffffffffffffffffffffffffffffff1673ffffffffffffffffffffffffffffffffffffffff16815260200190815260200160002081905550600060016000808282546101959190610b1b565b925050819055506000606460015442446101af9190610b1b565b6101b99190610b1b565b6101c39190610c5e565b905080600181905550600a8110156102d657600191506000655af3107a4000905047811115610227576040517f08c379a000000000000000000000000000000000000000000000000000000000815260040161021e906109d9565b60405180910390fd5b60003373ffffffffffffffffffffffffffffffffffffffff168260405161024d90610964565b60006040518083038185875af1925050503d806000811461028a576040519150601f19603f3d011682016040523d82523d6000602084013e61028f565b606091505b50509050806102d3576040517f08c379a00000000000000000000000000000000000000000000000000000000081526004016102ca906109f9565b60405180910390fd5b50505b600260405180608001604052803373ffffffffffffffffffffffffffffffffffffffff168152602001858152602001841515815260200142815250908060018154018082558091505060019003906000526020600020906004020160009091909190915060008201518160000160006101000a81548173ffffffffffffffffffffffffffffffffffffffff021916908373ffffffffffffffffffffffffffffffffffffffff160217905550602082015181600101908051906020019061039d9291906105a5565b5060408201518160020160006101000a81548160ff0219169083151502179055506060820151816003015550503373ffffffffffffffffffffffffffffffffffffffff167f60a1d5790574ec51616f7f8876394497ede7d5ed490837e6fd788ce4d11a7a248484426040516104149392919061099b565b60405180910390a2505050565b60036020528060005260406000206000915090505481565b60606002805480602002602001604051908101604052809291908181526020016000905b8282101561059c57838290600052602060002090600402016040518060800160405290816000820160009054906101000a900473ffffffffffffffffffffffffffffffffffffffff1673ffffffffffffffffffffffffffffffffffffffff1673ffffffffffffffffffffffffffffffffffffffff1681526020016001820180546104e690610bfb565b80601f016020809104026020016040519081016040528092919081815260200182805461051290610bfb565b801561055f5780601f106105345761010080835404028352916020019161055f565b820191906000526020600020905b81548152906001019060200180831161054257829003601f168201915b505050505081526020016002820160009054906101000a900460ff161515151581526020016003820154815250508152602001906001019061045d565b50505050905090565b8280546105b190610bfb565b90600052602060002090601f0160209004810192826105d3576000855561061a565b82601f106105ec57805160ff191683800117855561061a565b8280016001018555821561061a579182015b828111156106195782518255916020019190600101906105fe565b5b509050610627919061062b565b5090565b5b8082111561064457600081600090555060010161062c565b5090565b600061065b61065684610a79565b610a54565b90508281526020810184848401111561067357600080fd5b61067e848285610bb9565b509392505050565b60008135905061069581610e4c565b92915050565b600082601f8301126106ac57600080fd5b81356106bc848260208601610648565b91505092915050565b6000602082840312156106d757600080fd5b60006106e584828501610686565b91505092915050565b60006020828403121561070057600080fd5b600082013567ffffffffffffffff81111561071a57600080fd5b6107268482850161069b565b91505092915050565b600061073b83836108e3565b905092915050565b61074c81610b71565b82525050565b600061075d82610aba565b6107678185610add565b93508360208202850161077985610aaa565b8060005b858110156107b55784840389528151610796858261072f565b94506107a183610ad0565b925060208a0199505060018101905061077d565b50829750879550505050505092915050565b6107d081610b83565b82525050565b6107df81610b83565b82525050565b60006107f082610ac5565b6107fa8185610af9565b935061080a818560208601610bc8565b61081381610d4b565b840191505092915050565b600061082982610ac5565b6108338185610b0a565b9350610843818560208601610bc8565b61084c81610d4b565b840191505092915050565b6000610864603483610b0a565b915061086f82610d5c565b604082019050919050565b6000610887602783610b0a565b915061089282610dab565b604082019050919050565b60006108aa600083610aee565b91506108b582610dfa565b600082019050919050565b60006108cd602983610b0a565b91506108d882610dfd565b604082019050919050565b60006080830160008301516108fb6000860182610743565b506020830151848203602086015261091382826107e5565b915050604083015161092860408601826107c7565b50606083015161093b6060860182610946565b508091505092915050565b61094f81610baf565b82525050565b61095e81610baf565b82525050565b600061096f8261089d565b9150819050919050565b600060208201905081810360008301526109938184610752565b905092915050565b600060608201905081810360008301526109b5818661081e565b90506109c460208301856107d6565b6109d16040830184610955565b949350505050565b600060208201905081810360008301526109f281610857565b9050919050565b60006020820190508181036000830152610a128161087a565b9050919050565b60006020820190508181036000830152610a32816108c0565b9050919050565b6000602082019050610a4e6000830184610955565b92915050565b6000610a5e610a6f565b9050610a6a8282610c2d565b919050565b6000604051905090565b600067ffffffffffffffff821115610a9457610a93610d1c565b5b610a9d82610d4b565b9050602081019050919050565b6000819050602082019050919050565b600081519050919050565b600081519050919050565b6000602082019050919050565b600082825260208201905092915050565b600081905092915050565b600082825260208201905092915050565b600082825260208201905092915050565b6000610b2682610baf565b9150610b3183610baf565b9250827fffffffffffffffffffffffffffffffffffffffffffffffffffffffffffffffff03821115610b6657610b65610c8f565b5b828201905092915050565b6000610b7c82610b8f565b9050919050565b60008115159050919050565b600073ffffffffffffffffffffffffffffffffffffffff82169050919050565b6000819050919050565b82818337600083830152505050565b60005b83811015610be6578082015181840152602081019050610bcb565b83811115610bf5576000848401525b50505050565b60006002820490506001821680610c1357607f821691505b60208210811415610c2757610c26610ced565b5b50919050565b610c3682610d4b565b810181811067ffffffffffffffff82111715610c5557610c54610d1c565b5b80604052505050565b6000610c6982610baf565b9150610c7483610baf565b925082610c8457610c83610cbe565b5b828206905092915050565b7f4e487b7100000000000000000000000000000000000000000000000000000000600052601160045260246000fd5b7f4e487b7100000000000000000000000000000000000000000000000000000000600052601260045260246000fd5b7f4e487b7100000000000000000000000000000000000000000000000000000000600052602260045260246000fd5b7f4e487b7100000000000000000000000000000000000000000000000000000000600052604160045260246000fd5b6000601f19601f8301169050919050565b7f547279696e6720746f207769746864726177206d6f7265206d6f6e657920746860008201527f616e2074686520636f6e7472616374206861732e000000000000000000000000602082015250565b7f4661696c656420746f207769746864726177206d6f6e65792066726f6d20636f60008201527f6e74726163742e00000000000000000000000000000000000000000000000000602082015250565b50565b7f4d7573742077616974203135207365636f6e6473206265666f7265207761766960008201527f6e6720616761696e2e0000000000000000000000000000000000000000000000602082015250565b610e5581610b71565b8114610e6057600080fd5b5056fea2646970667358221220566e5bf1080e8ecc77268e8cd44311da7608793a476c35cd4dbe9eb89d8d36df64736f6c63430008040033",
  "linkReferences": {},
  "deployedLinkReferences": {}
}